:020000040800F2
:100000000000082051220008E5210008E72100082F
:10001000E9210008EB210008ED21000800000000A4
:10002000000000000000000000000000EF210008B8
:10003000F121000800000000F3210008F52100086C
:10004000A1220008A1220008A1220008A122000884
:10005000A1220008A1220008A1220008A122000874
:10006000A1220008A1220008A1220008A122000864
:10007000A1220008A1220008A1220008A122000854
:10008000A1220008A1220008A1220008A122000844
:10009000A1220008A1220008A1220008A122000834
:1000A000A1220008A1220008A1220008A122000824
:1000B000A1220008A1220008A1220008A122000814
:1000C000A1220008A1220008A1220008A122000804
:1000D000A1220008A1220008A1220008A1220008F4
:1000E000A1220008A1220008A1220008A1220008E4
:1000F000A1220008A1220008A1220008A1220008D4
:10010000A1220008A1220008A1220008A1220008C3
:10011000A1220008A1220008A1220008A1220008B3
:10012000A1220008A1220008A1220008A1220008A3
:10013000A1220008A1220008A1220008A122000893
:10014000A1220008A1220008A1220008A122000883
:10015000A1220008A1220008A1220008A122000873
:10016000A1220008A1220008A1220008A122000863
:10017000A1220008A1220008A1220008000000001E
:10018000A1220008A1220008A1220008A122000843
:10019000A1220008A1220008A1220008A122000833
:1001A000A1220008A1220008A1220008A122000823
:1001B000A1220008A1220008A1220008A122000813
:1001C000A1220008A122000800000000A1220008CE
:1001D000A1220008A1220008A1220008A1220008F3
:1001E000A1220008A1220008A1220008A1220008E3
:0801F000A1220008A122000871
:1001F80010B5054C237833B9044B13B10448AFF359
:1002080000800123237010BD0C00002000000000B6
:10021800EC22000808B5034B1BB103490348AFF3B0
:10022800008008BD0000000010000020EC2200083B
:1002380053B94AB9002908BF00281CBF4FF0FF3145
:100248004FF0FF3000F07AB9ADF1080C6DE904CE3B
:1002580000F006F8DDF804E0DDE9022304B0704799
:100268002DE9F0478C460D460446089E002B51D1D7
:100278008A4217466DD9B2FA82FEBEF1000F0BD042
:10028800CEF1200C01FA0EF520FA0CFC02FA0EF75A
:100298004CEA050C00FA0EF44FEA174A250CBCFB91
:1002A800FAF81FFA87F90AFB18CC45EA0C4508FB4F
:1002B80009F3AB420AD9ED1908F1FF3280F0238126
:1002C800AB4240F22081A8F102083D44ED1AA4B2E5
:1002D800B5FBFAF00AFB105544EA054400FB09F99E
:1002E800A14509D9E41900F1FF3380F00A81A1453D
:1002F80040F2078102383C44A4EB090440EA084074
:100308000021002E61D024FA0EF4002334607360BB
:10031800BDE8F0878B4207D9002E54D0002186E82B
:1003280021000846BDE8F087B3FA83F1002940F0C0
:100338008E80AB4202D3824200F2FA80841A65EBC7
:1003480003050120AC46002E3FD086E81010BDE81A
:10035800F08712B90127B7FBF2F7B7FA87FEBEF1AB
:10036800000F34D1EB1B3A0C1FFA87FC0121B3FBB9
:10037800F2F8250C02FB183345EA03450CFB08F399
:10038800AB4207D9ED1908F1FF3002D2AB4200F2B7
:10039800D1808046ED1AA3B2B5FBF2F002FB1055EE
:1003A80043EA05440CFB00FCA44507D9E41900F115
:1003B800FF3302D2A44500F2B8801846A4EB0C041F
:1003C80040EA08409DE731463046BDE8F087CEF167
:1003D800200405FA0EF307FA0EF720FA04F83A0C8F
:1003E80025FA04F448EA0308B4FBF2F14FEA184589
:1003F80002FB11441FFA87FC45EA044501FB0CF394
:10040800AB4200FA0EF409D9ED1901F1FF3080F082
:100418008A80AB4240F2878002393D44EB1A1FFACA
:1004280088F5B3FBF2F002FB103345EA034500FB05
:100438000CF3AB4207D9ED1900F1FF386FD2AB428C
:100448006DD902383D44EB1A40EA01418FE7C1F10A
:10045800200722FA07F88B4005FA01F448EA03035B
:1004680020FA07FE4FEA134CFD404EEA040EB5FB96
:10047800FCF94FEA1E440CFB19551FFA83F844EAAD
:10048800054509FB08F4AC4202FA01F200FA01FA48
:1004980008D9ED1809F1FF3043D2AC4241D9A9F18E
:1004A80002091D442D1B1FFA8EFEB5FBFCF00CFB48
:1004B80010554EEA054400FB08F8A04507D9E41892
:1004C80000F1FF3529D2A04527D902381C4440EA5B
:1004D8000940A4EB0804A0FB02894C45C6464D46DA
:1004E80015D312D056B1BAEB0E0364EB050404FA27
:1004F80007F7CB401F43CC40376074600021BDE84C
:10050800F0871846F8E69046E0E6C245EAD2B8EB2E
:10051800020E69EB03050138E4E72846D7E74046B1
:1005280091E78146BEE7014678E702383C4445E753
:10053800084608E7A8F102083D442BE7704700BFCA
:1005480038B50E4B05460E4A18784FF47A73B3FB4C
:10055800F0F31068B0FBF3F000F0D4F9044658B992
:100568000F2D09D8024629464FF0FF3000F092F9C6
:10057800044B20461D6038BD012038BD0000002016
:10058800080000200400002008B5032000F070F9DE
:100598000020FFF7D5FF01F0E5FC002008BD0000B2
:1005A800034A044B11681B780B441360704700BF63
:1005B8002800002000000020014B1868704700BF89
:1005C8002800002038B50446FFF7F6FF0546631CEF
:1005D8001EBF044B1B78E418FFF7EEFF401B844254
:1005E800FAD838BD0000002010B50446002800F0F5
:1005F8009980036C23B9436480F83C3001F0F8FC1F
:10060800236CDB0600F18C80236C23F4885323F0E1
:10061800020343F002032364434B5A6822F4403236
:100628005A605A6861680A435A60236821695A689F
:1006380022F480725A605A6842EA0122A1685A601C
:100648005A6822F040725A605A680A43E1685A6050
:100658009A6822F400629A609A680A4333499A6059
:10066800A26A8A4250D0996821F0706199609968AD
:100678000A43E16A9A609A6822F040529A609A683E
:100688000A439A609A68A16922F002029A609A68FD
:1006980042EA41029A60226A002A3DD05A68616A99
:1006A80042F4006201395A605A6822F460425A6082
:1006B8005A6842EA41325A600020DA6AE16922F453
:1006C80070020139DA62DA6A42EA0152216BDA62AF
:1006D8009A6822F400729A609A6842EA4122616933
:1006E8009A609A6822F480629A609A6842EA812243
:1006F8009A606064236C23F0030343F001032364CE
:10070800002384F83C3010BD9A6822F070629A6029
:100718009A6822F04052B4E75A6822F40062CAE7A5
:100728000120EDE7012010BD002301400100000F6A
:100738000023F7B5019390F83C30012B71D00D6878
:1007480001230468092D80F83C30AEB28A6831D99B
:1007580006EB46034FF0070EE7681E3B0EFA03FE52
:1007680027EA0E07E7603D4FBD421ED1E36843EA22
:100778000263E3604A68062A4FEA82032AD81344D0
:10078800676B591F1F238B4006FA01F127EA030301
:100798006363626B11436163314B9C4239D0002320
:1007A80080F83C30184603B0F0BDE76802FA03F35E
:1007B8003B43DEE705EB45034FF0070E27690EFACA
:1007C80003FE02FA03F327EA0E07276127693B4372
:1007D8002361CFE70C2A0ED81344216BA3F123021F
:1007E8001F23934006FA02F221EA03032363236BD3
:1007F8001A432263D0E713441F22E16A413B9A401F
:1008080021EA020206FA03F1E262E26A1143E162B6
:10081800C2E7122D07D1134A536843F4800353608B
:10082800BDE70220BFE70D4B9D4201D0112DB6D187
:100838000C499D424A6842F400024A60AFD10A4B13
:100848000A4A1B68B3FBF2F20A2353430193019B44
:10085800002BA4D0019B013BF8E700BF1200001059
:1008680000200140002301400800002040420F0002
:10087800074A0002D36800F4E06023F4E0631B0435
:100888001B0C43F0BF6343F400330343D36070474A
:1008980000ED00E0194B30B5DC68C4F30224C4F164
:1008A8000703251D042B28BF0423062D4FF001053F
:1008B8008CBF033C002405FA03F3002803F1FF333F
:1008C80001EA030101FA04F105FA04F404F1FF3422
:1008D80002EA040242EA01024FEA021205DA00F0D3
:1008E8000F00D2B2064B1A5430BD00F16040D2B2AC
:1008F80000F5614080F8002330BD00BF00ED00E046
:1009080014ED00E00138B0F1807F0AD2064BF021E7
:10091800064A5860002082F82310072298601A605F
:1009280070470120704700BF10E000E000ED00E0D4
:10093800044B04281A680CBF42F0040222F0040297
:100948001A60704710E000E0704708B5FFF7FCFF39
:1009580008BD00002DE9F04F0B6885B0DFF8C081B5
:10096800019300236C4ADFF8BC914FF0010E019C03
:100978000EFA03FE0EEA0406B64540F0B3804C6852
:1009880024F01007022F16D14FEAD30A03F0070B01
:100998004FF00F0C00EB8A0A4FEA8B0BDAF8205065
:1009A8000CFA0BFC25EA0C0C0D6905FA0BF545EA67
:1009B8000C05CAF820504FEA430A0325D0F800B0C6
:1009C80004F0030C05FA0AF5013F0CFA0AFCED43A2
:1009D800012F0BEA050B4CEA0B0CC0F800C011D82C
:1009E800876807EA050BCF6807FA0AFC4CEA0B0789
:1009F8008760476827EA0E0EC4F300179F4047EA4E
:100A08000E074760C7683D408F6807FA0AF73D43FD
:100A1800C560E50066D5D8F8445023F0030703F015
:100A2800030E4FF00F0C45F4804507F180474FEA5D
:100A38008E0EC8F8445007F59C37D8F8445005F492
:100A480080450395039D0CFA0EF5D7F808A02AEA0D
:100A5800050C324DA8424CD005F58065A8424AD015
:100A680005F58065A84248D005F58065A84246D0BE
:100A780005F58065A84244D0484544D005F5006591
:100A8800A84242D005F58065A84240D005F58065AA
:100A9800A8423ED005F58065A84214BF0A2509255D
:100AA80005FA0EF514F4803F45EA0C05BD606FEABF
:100AB800060715680CBF3D40354314F4003F156028
:100AC80055680CBF3D40354314F4801F5560956848
:100AD8000CBF3D403543A4029560D56854BF3D40E6
:100AE8003543D5600133102B7FF43FAF05B0BDE827
:100AF800F08F0025D4E70125D2E70225D0E70325AA
:100B0800CEE70425CCE70525CAE70625C8E707256B
:100B1800C6E70825C4E700BF003C014000000240CA
:100B280000380240001402400369194214BF012032
:100B3800002070470AB1816170470904FBE7000093
:100B4800194B37B51A6C194C42F080521A641B6C59
:100B580003F080530193019B236843F4803323609F
:100B6800FFF72AFD05466368DA030CD5236843F4CA
:100B780000332360FFF720FD0C4C054663689B0398
:100B88000AD5002006E0FFF717FD401BB0F57A7F75
:100B9800E9D9032003B030BDFFF70EFD401BB0F5C7
:100BA8007A7FEBD9F5E700BF0038024000700040BB
:100BB8002DE9F341044618B9012002B0BDE8F081DF
:100BC8000368D80710D4236899075ED423681907E7
:100BD80000F1A38023685A0700F1C480A269002AA3
:100BE80040F02E810020E8E7934B9A6802F00C024F
:100BF800042A07D09A6802F00C02082A0AD15B6816
:100C08005A0207D58C4B1B689B03DCD56368002B05
:100C1800D9D1D1E76368884DB3F5803F11D12B68EE
:100C280043F480332B60FFF7C7FC834D06462B68DF
:100C38009F03C8D4FFF7C0FC801B6428F7D90320A2
:100C4800BBE79BB92B6823F480332B602B6823F414
:100C580080232B60FFF7B0FC06462B689803B2D5BB
:100C6800FFF7AAFC801B6428F7D9E8E7B3F5A02FA3
:100C78002B6803D143F480232B60D0E723F480331F
:100C88002B602B6823F48023CCE76B4B9A6812F017
:100C98000C0F07D09A6802F00C02082A11D15B6881
:100CA80059020ED4644B1A68920702D5E268012AE9
:100CB80082D11A68216922F0F80242EAC1021A6058
:100CC80084E7E3685C4DBBB12B6843F001032B60FC
:100CD800FFF772FC06462B689F0707D52B68226929
:100CE80023F0F80343EAC2032B606FE7FFF764FCC5
:100CF800801B0228EFD9A2E72B6823F001032B60A1
:100D0800FFF75AFC06462B6898077FF55FAFFFF799
:100D180053FC801B0228F6D991E76369464D83B1DD
:100D28006B6F43F001036B67FFF746FC06466B6F7A
:100D38009B073FF54FAFFFF73FFC801B0228F6D912
:100D48007DE76B6F23F001036B67FFF735FC064601
:100D58006B6F9F077FF53EAFFFF72EFC801B0228C5
:100D6800F6D96CE7344B1A6CD00027D41A6C0126DC
:100D780042F080521A641B6C03F080530193019B6C
:100D88002E4D2B68D9051BD5A3682B4D012B27D1D8
:100D98002B6F43F001032B6741F28835FFF70CFCFA
:100DA800254F80463B6F9B073FD5002E3FF416AF7B
:100DB800214A136C23F0805313640FE70026DFE702
:100DC8002B6843F480732B60FFF7F6FB07462B680C
:100DD800DA05D9D4FFF7F0FBC01B6428F7D92EE752
:100DE800ABB92B6F41F2883823F001032B672B6FC7
:100DF80023F004032B67FFF7DFFB07462B6F9807E9
:100E0800D3D5FFF7D9FBC01B4045F7D917E7052B0A
:100E18002B6F03D143F004032B67B9E723F00103D9
:100E28002B672B6F23F00403B5E7FFF7C5FBA0EB97
:100E38000800A842B6D902E7003802400070004016
:100E4800244DAB6803F00C03082B3FF4B5AE2B68B8
:100E5800022A23F080732B602FD1FFF7ADFB0646E3
:100E68002B68990123D4226AE3691343626A43EA2F
:100E78008213E26A43EA0263226B43EA0273A26ABC
:100E8800144C5208013A43EA02436B602B6843F062
:100E980080732B60FFF790FB054623689A013FF5A6
:100EA800A1AEFFF789FB401B0228F6D9C7E6FFF77A
:100EB80083FB801B0228D3D9C1E6FFF77DFB0446DC
:100EC8002B689B017FF58EAEFFF776FB001B02288F
:100ED800F6D9B4E600380240134908B58B6803F028
:100EE8000C03042B03D0082B03D0104808BD10486E
:100EF80008BD4A684B68496802F03F0213F4800352
:100F0800C1F388111ABF0A4800230848A1FB000151
:100F1800FFF78EF9044B5B68C3F3014301335B00B1
:100F2800B0FBF3F008BD00BF003802400024F40015
:100F380040787D012DE9F0410D46044610B90120A5
:100F4800BDE8F081464A136803F00F038B4228D3AB
:100F580021688F0730D4C80743D4414A136803F087
:100F68000F039D4267D32268510770D4130707D532
:100F78003C4A2169936823F4604343EAC1039360C0
:100F8800FFF7AAFF374B384A9B68C3F30313D35CB8
:100F9800D840364B18600020FFF7D2FA0020BDE891
:100FA800F081136823F00F030B431360136803F0F9
:100FB8000F039942C3D1CBE711F0040F294B03D09B
:100FC8009A6842F4E0529A600E0703D59A6842F490
:100FD80060429A609A68A06822F0F00202439A6020
:100FE800B9E761681F4B01291A681CD112F4003F48
:100FF800A5D09A6841F288381A4E22F003020A43B3
:101008009A60FFF7D9FA0746B368626803F00C03E1
:10101800B3EB820FA1D0FFF7CFFAC01B4045F3D93D
:101028000320BDE8F081022902D112F0007FDFE73A
:1010380012F0020FDCE7136823F00F032B43136051
:10104800136803F00F039D427FF479AF8BE70549DE
:10105800E0688B6823F4E05303438B6086E700BFA6
:10106800003C024000380240042300080800002029
:10107800014B1868704700BF08000020036A10B5CC
:10108800046A23F00A0324F001040B430462846910
:1010980024F0F00444EA02128261036210BD036A7C
:1010A80023F0100310B503628469036A24F47044C2
:1010B80023F0A00344EA023243EA01138261036287
:1010C80010BD036889B1042907D01A6A22F0010209
:1010D8001A621A6A42F001021A621A6A22F01002AF
:1010E8001A621A6A42F0100206E01A6A22F0010235
:1010F8001A621A6A42F001021A6200201A6842F063
:1011080001021A6070470000304A0368904212D00A
:10111800B0F1804F0FD0A2F57C4290420BD002F57F
:101128008062904207D002F58062904203D002F5B7
:10113800784290421DD14A6823F070031343234A32
:10114800904204D123F44073CA68134328E0B0F1F5
:10115800804FF7D01E4A9042F4D002F58062904248
:10116800F0D002F580629042ECD002F578429042CD
:10117800E8D0184A9042E5D002F580629042E1D06A
:1011880002F580629042DDD0A2F598329042D9D023
:1011980002F580629042D5D002F580629042D1D0AB
:1011A8004A6923F08003134303608B68C3620B68AA
:1011B8008362064B984206D003F58063984202D0BA
:1011C8000123436170470B690363F9E7000001409D
:1011D800000400400040014010B50446A0B190F85A
:1011E8003D3003F0FF021BB980F83C2000F022FFDD
:1011F80002232068211D84F83D30FFF785FF012375
:10120800002084F83D3010BD012010BD10B5044603
:10121800A0B190F83D3003F0FF021BB980F83C20E4
:1012280000F0A0FF02232068211D84F83D30FFF75D
:101238006BFF0123002084F83D3010BD012010BD54
:10124800F8B50C460546002843D090F83D3003F029
:10125800FF021BB980F83C2000F000FF294602235A
:1012680051F8040B85F83D30836823F4803323F06C
:1012780007038360FFF748FF286823688668826948
:10128800A1681E4322F44072A369076A22F0030290
:1012980041EA0323E169134323F47C4223691B01D8
:1012A80022F0FC0243EA0123E1680B43216A43EA86
:1012B80001336169134327F0AA026768866047EA29
:1012C80001178361012317430762002085F83D3029
:1012D800F8BD0120F8BD0000036A23F0010370B5D2
:1012E8000362036A4268846923F002030D6824F4E8
:1012F800803424F073042C438D682B430C4DA84292
:1013080009D005F58065A84205D042604A68846125
:101318004263036270BDCD6823F008038E6922F42E
:1013280040722B434D69354323F004032A43ECE70D
:1013380000000140036A23F0100370B50362036ADA
:101348004268846923F020030D6824F0807424F433
:10135800E64444EA05248D6843EA05130D4DA84286
:1013680009D005F58065A84205D042604A688461C5
:101378008263036270BDCD6823F080038E6922F416
:10138800406243EA05134D69354323F0400342EABE
:101398008502EAE700000140036A23F4807370B510
:1013A8000362036A4268C46923F400730D6824F475
:1013B800803424F073042C438D6843EA05230E4DD2
:1013C800A84209D005F58065A84205D042604A6860
:1013D800C461C263036270BDCD6823F400638E6983
:1013E80022F4405243EA05234D69354323F48063D0
:1013F80042EA0512EAE700BF00000140036A23F44D
:10140800805330B50362046A4268C36924F4005407
:101418000D6823F0807323F4E64343EA05238D68BF
:1014280044EA0534094DA84209D005F58065A8426B
:1014380005D04260C3614B680364046230BD22F486
:1014480080424D6942EA8512F3E700BF000001407F
:1014580010B50A43846842EA032324F47F442343F3
:10146800836010BD90F83C30012B10B504464FF056
:10147800020018D084F83D000123206884F83C302D
:1014880082683E4B134083600B68402B59D015D8B7
:10149800102B67D008D8002B5ED00123002084F8D9
:1014A8003D3084F83C0010BD202B61D0302BF4D1A6
:1014B800836823F0700343F0370326E0702B26D0AF
:1014C8000ED8502B32D0602BE7D1CA684968FFF795
:1014D800E6FD2268936823F0700343F0670323E076
:1014E800B3F5805F0CD0B3F5005FD6D1CB684A68FE
:1014F8008968FFF7ADFF2268936843F4804313E0DF
:10150800836823F4803323F007038360C5E7CB683F
:101518004A688968FFF79CFF2268936823F4803340
:1015280023F0770343F077039360B6E7CA68496806
:10153800FFF7A4FD2268936823F0700343F0570374
:10154800F2E7CA684968FFF799FD2268936823F0B3
:10155800700343F04703E7E7836823F0700343F021
:101568000703D2E7836823F0700343F01703CCE73F
:10157800836823F0700343F02703C6E78800FEFF63
:1015880010B50124036A8A408C4023EA04030362ED
:10159800036A1A43026210BD10B5044601220068AE
:1015A800FFF7EEFF2368084A934203D002F58062F2
:1015B800934203D15A6C42F400425A641A680020DC
:1015C80042F001021A6010BD00000140036A23F4D2
:1015D800803330B50362026A4468436D22F40032F6
:1015E8000D6823F4803323F070032B438D6842EA9F
:1015F8000542094DA84203D005F58065A84204D1EB
:1016080024F480344D6944EA0524446043654B68FA
:101618008365026230BD00BF00000140036A23F405
:10162800801330B50362026A4468436D22F40012E5
:101638000D6823F0807323F4E04343EA05238D68A3
:1016480042EA0552084DA84203D005F58065A84234
:1016580004D124F480244D6944EA85244460436518
:101668004B68C365026230BD0000014090F83C3011
:10167800012B30B51CD002680E4D5368AA429468FD
:1016880003D005F58065AA4203D123F470034D68A1
:101698002B430D6823F07003896824F080042B43E2
:1016A800214353600023916080F83C30184630BDD8
:1016B800022030BD0000014090F83C30012B10B5ED
:1016C80038D0CB688A6823F440731B4C13434A68AC
:1016D80023F4806313430A6823F4006313430A69FD
:1016E80023F4805313434A6923F4005313438A6A4B
:1016F80023F4404313438A6923F4702343EA0243E3
:101708000268A24203D004F58064A2420CD14C6A5C
:1017180023F4700343EA0453CC69096A23F0807305
:10172800234323F000730B435364002380F83C30B9
:10173800184610BD022010BD0000014038B590F8D1
:101748003C3004460D460220012B10D00123082A04
:1017580084F83D0084F83C3043D009D8FAB1042A13
:101768002ED00123002084F83D3084F83C0038BD99
:10177800102A47D0142A56D00C2AF2D12068FFF735
:101788003DFE23682969DA6942F40062DA61DA69A0
:1017980022F48062DA61DA6942EA012230E02068E4
:1017A800FFF79AFD236829699A6942F008029A614D
:1017B8009A6922F004029A619A690A439A61D0E709
:1017C8002068FFF7B7FD236829699A6942F4006227
:1017D8009A619A6922F480629A619A6942EA0122BE
:1017E800ECE72068FFF7D8FD23682969DA6942F039
:1017F8000802DA61DA6922F00402DA61DA690A4376
:10180800DA61AEE72068FFF7E1FE236809695A6DDF
:1018180042F008025A655A6D22F004025A655A6D60
:101828000A435A659DE72068FFF7F8FE23680969AF
:101838005A6D42F400625A655A6D22F480625A6504
:101848005A6D42EA0122ECE770B5041E0D46324E8D
:1018580021DD002204213148FFF76CF90122022121
:101868002E48FFF767F9642C3368A8BF6424002D5D
:101878009C632FDD002280212948FFF75BF90122B4
:101888004FF480712648FFF755F9642D3368A8BFD7
:1018980064255D6370BD11D0012204211F48FFF744
:1018A80049F9002202211D48FFF744F96FF063024D
:1018B80033689442B8BF14466442D8E722460421EC
:1018C8001648FFF737F9224602211448FFF732F984
:1018D8003368CCE713D0012280211148FFF72AF999
:1018E80000224FF480710E48FFF724F96FF063036C
:1018F80032689D42B8BF1D466D42556370BD2A4689
:1019080080210748FFF716F92A464FF480710448EA
:10191800FFF710F93368BCE73801002000040240E3
:10192800001002400022014B1A7070472C00002062
:101938001C4B1A78032A10D8DFE802F004141F029F
:101948000120704770EE007AC0ED007AF7EE007A59
:10195800B4EEE70AF1EE10FA01DA0020704701222E
:101968001A70FAE7F0EE007AB4EEE70AC0ED007AF2
:10197800F1EE10FAF1DB0222F2E7B0EE007BB7EEEF
:10198800C06A36EE476BA6EE477BB7EEC77BF0EE34
:10199800087A80ED007AB4EEE70AF1EE10FADCDBA3
:1019A8000322DDE72C000020284B1A6C42F08052FD
:1019B80010B51A6494B01B6C022407A803F0805376
:1019C8000093009B224B1A6842F440421A601B683D
:1019D800079403F440430D9411940193019B012350
:1019E80012940A9310230B9300230E9308230F934A
:1019F800D8231093FFF7DCF800B1FEE7FFF7A0F853
:101A080000B1FEE70F230490072102A802934FF4C8
:101A1800A053039405934FF480530693FFF78AFA73
:101A2800044600B1FEE7FFF723FB4FF47A73B0FBDF
:101A3800F3F0FEF767FF0420FEF77AFF22462146FF
:101A48004FF0FF30FEF726FF14B010BD00380240FB
:101A580000700040000000002DE9F0472DED028BDA
:101A6800A0B00025FEF790FD1124FFF79DFF9A4BCB
:101A78004FF4C27199481A6B0427012642F01002EC
:101A88001A631A6B02F010020292029A1A6B42F061
:101A980004021A631A6B02F004020392039A1A6B87
:101AA80042F001021A631A6B02F001020492049ACE
:101AB8001A6B42F002021A631A6B02F002020592D4
:101AC800059A1A6B42F008021A6300221B6B03F096
:101AD80008030693069BFFF72DF800220F21804884
:101AE800FFF728F8002206217E48FFF723F8002296
:101AF80008217D48FFF71EF815A978481694159710
:101B080017951895FEF726FF0F2315A97448159306
:101B1800169617951895FEF71DFF062315A9714807
:101B28001593169617951895FEF714FF4FF4C07382
:101B380015A96A481593169617951895FEF70AFF82
:101B48004FF4E06315A96848159316951796FEF7A4
:101B580001FF082315A96448159316941795634C3B
:101B68001895FEF7F7FE6B2361492046A5602561AD
:101B78006561A56184E80A006423E360FFF72CFB34
:101B880000B1FEE720A94FF48053204641F8583DA4
:101B9800FFF768FC00B1FEE72046FFF737FB00B10E
:101BA800FEE7079007A9089009902046FFF75EFD19
:101BB800024600B1FEE760230F9010900EA9119025
:101BC80012901390149020460E93FFF7B7FD00B1C2
:101BD800FEE73A460EA92046FFF7B0FD00B1FEE742
:101BE8004FF400531590169015A91A934FF00073EF
:101BF8001790189019901B901C901E901F902046CB
:101C08001D93FFF759FD054600B1FEE72046394C04
:101C180000F0BCFA4FF6FF78374B032715A920468A
:101C2800A560C4F80C802561A561159716951796CF
:101C3800189519951A951B961C951D9584E82800EA
:101C4800FFF7FEFA00B1FEE70E900EA910902046AD
:101C5800FFF70CFD034600B1FEE7284815A9284AFE
:101C68008360C0F80C8003618361159716931796FB
:101C7800189319931A931B961C931D9380E80C00D4
:101C8800FFF7DEFA00B1FEE700230EA91B480E930A
:101C98001093FFF7EBFC00B1FEE71A4E01274FF057
:101CA80080494FF0FF3A03247060B06015A9306195
:101CB800B0611690189019901A901C901D9030469B
:101CC800C6F80090C6F80CA0159417971B97FFF755
:101CD800B7FAC8B1FEE700BF003802400010024062
:101CE8000008024000040240000C024038010020B5
:101CF800000001403000002000080040B000002033
:101D080000040040B80100200E900EA91090304643
:101D1800FFF7ACFC00B1FEE7834D15A9DFF8408260
:101D28006860A8602861A8611690189019901A90A8
:101D38001C901D902846C5F80080C5F80CA0159485
:101D480017971B97FFF77CFA00B1FEE70E900EA9D4
:101D580010902846FFF78AFC00B1FEE7734C4FF459
:101D68008033734AA0602061A0612062E062E06075
:101D780020632046E761676184E80C006D4BA3622D
:101D8800FEF732FC00B1FEE74FF0040A179015A9E0
:101D98002046CDF854A01697FEF7CAFC00B1FEE71E
:101DA800654F664B7860B860F8603861B86138464E
:101DB8003B60FFF72BFA024600B1FEE7602316905E
:101DC800179015A9199038461593FFF7B7FC0446E4
:101DD80000B1FEE7384600F0D9F9224608215848F4
:101DE800FEF7A8FE224651465548FEF7A3FE2246B6
:101DF80008215448FEF79EFE224651465248FEF7F7
:101E080099FE21465148FFF7C7FB51464F48FFF757
:101E1800C3FB3C2130464B4EFFF753F93C214C485D
:101E2800FFF74FF93C214B48FFF74BF93C21284677
:101E3800FFF747F921463846434FFFF7ADFB4FF40C
:101E48007A70FEF7BFFBD9F82430434B9FED348BF3
:101E58005B6A424B5B6AD8F824300194012C1CD091
:101E6800FCD24FF400713046FEF75EFE05460028AE
:101E78004AD1FFF757FD0124FEF79EFB2946019042
:101E88002846FFF7E1FC2A4608213046FEF752FEB5
:101E98002A4604213846FEF74DFE224608213046E0
:101EA800FEF748FE224604213846FEF743FE00238B
:101EB8001593FEF781FB07EE900A15A8B8EE670A9E
:101EC800DDED017AF8EE677A30EE670AB7EEC00A00
:101ED80020EE080BB7EEC00BFFF72AFD9DED157A33
:101EE800B3EE046B0446B7EEC77A27EE067BBDEE69
:101EF800C77B17EE101A17EE100AFFF7A5FC14F1AE
:101F0800FF3418BF0124A9E7304601220821FEF753
:101F180011FE012204213846FEF70CFE9EE700BFA1
:101F2800FCA9F1D24D62503F70000020F000002063
:101F3800002001400100000F78010020004001400E
:101F480000080240000C0240001002403801002046
:101F5800B0000020300000200004004000080040CD
:101F6800000C0040214B07B51A6C032042F0805248
:101F78001A641A6C02F080520092009A5A6C42F469
:101F880080425A645B6C03F480430193019BFEF723
:101F98006FFC00226FF00B001146FEF77BFC00225D
:101FA8006FF00A001146FEF775FC00226FF0090079
:101FB8001146FEF76FFC00226FF004001146FEF791
:101FC80069FC00226FF003001146FEF763FC002253
:101FD8006FF001001146FEF75DFC00224FF0FF3064
:101FE8001146FEF757FC03B05DF804FB00380240C9
:101FF8007FB502680D4B9A4214D103F58C3301A9C1
:102008000B485A6C42F480725A645B6C03F4807318
:102018000093009BF023019303230293002303936F
:10202800FEF798FC07B05DF804FB00BF00200140F4
:1020380000000240026882B0074B9A420AD103F5B9
:102048009C335A6C42F001025A645B6C03F0010342
:102058000193019B02B07047000001400368B3F18F
:10206800804F70B58AB024D103F50E3300240226C0
:1020780001251A6C05A9334842F001021A641B6C49
:10208800069603F00103079408940193019B4FF40B
:10209800004309950593FEF75DFC082305A92A4826
:1020A80005930696079408940995FEF753FC0AB021
:1020B80070BD264A934214D1254B05A925481A6CB0
:1020C80042F002021A6400221B6C079203F002031A
:1020D80008920293029BC023059302230693099357
:1020E800E3E71D4A934215D1194B05A91B481A6C01
:1020F80042F004021A6400221B6C079203F00403E6
:1021080008920393039B4FF44053059302230693CD
:102118000993CAE7124A9342C9D10D4B05A9094848
:102128001A6C42F008021A6400221B6C079203F032
:10213800080308920493049B032305930223069340
:102148000993B2E700000240000402400004004086
:10215800003802400008024000080040000C02401D
:10216800000C0040026882B0074B9A420AD103F57E
:1021780078435A6C42F480325A645B6C03F48033BF
:102188000193019B02B07047004001407FB503688E
:102198000F4A934210D14FF4206301930223029314
:1021A800002303930493012301A90A480593FEF72A
:1021B800D1FB07B05DF804FB074A9342F9D120230D
:1021C8000193022302930023039304930323EBE771
:1021D8000000014000100240004001407047FEE747
:1021E800FEE7FEE7FEE770477047704708B5FEF761
:1021F800D7F9BDE80840FEF7A8BB00000F4900204A
:10220800D1F8883043F47003C1F888300C4B1A6851
:1022180042F001021A6098601A6822F0847222F46F
:1022280080321A60074A5A601A6822F480221A60BB
:10223800D8604FF000638B60704700BF00ED00E08E
:102248000038024010300024DFF834D0002103E0C9
:102258000C4B5B58435004310B480C4B42189A42C4
:10226800F6D30B4A02E0002342F8043B094B9A429A
:10227800F9D3FFF7C3FF00F011F8FFF7EDFB704744
:102288000000082024230008000000200C00002083
:102298000C000020F8010020FEE7000070B50D4E8C
:1022A8000D4CA41BA4100025A54209D10B4E0C4CC3
:1022B80000F018F8A41BA4100025A54205D170BD94
:1022C80056F8253098470135EEE756F825309847F7
:1022D8000135F2E71C2300081C2300081C23000812
:1022E80020230008F8B500BFF8BC08BC9E4670471C
:0C22F800F8B500BFF8BC08BC9E4670475B
:1023040000000000000000000102030406070809A1
:0823140054DFFF7F010000000F
:04231C001D02000896
:04232000F9010008B7
:0C23240001000000100000000024F40084
:04000005080022517C
:00000001FF
